{
    "_format": "hh-sol-artifact-1",
    "contractName": "Ballot",
    "sourceName": "contracts/Ballot.sol",
    "abi": [
        {
            "inputs": [
                {
                    "internalType": "bytes32[]",
                    "name": "proposalNames",
                    "type": "bytes32[]"
                }
            ],
            "stateMutability": "nonpayable",
            "type": "constructor"
        },
        {
            "inputs": [],
            "name": "LARGE_WEIGHT",
            "outputs": [
                {
                    "internalType": "uint256",
                    "name": "",
                    "type": "uint256"
                }
            ],
            "stateMutability": "view",
            "type": "function"
        },
        {
            "inputs": [],
            "name": "MEDIUM_WEIGHT",
            "outputs": [
                {
                    "internalType": "uint256",
                    "name": "",
                    "type": "uint256"
                }
            ],
            "stateMutability": "view",
            "type": "function"
        },
        {
            "inputs": [],
            "name": "NORMAL_WEIGHT",
            "outputs": [
                {
                    "internalType": "uint256",
                    "name": "",
                    "type": "uint256"
                }
            ],
            "stateMutability": "view",
            "type": "function"
        },
        {
            "inputs": [],
            "name": "chairperson",
            "outputs": [
                {
                    "internalType": "address",
                    "name": "",
                    "type": "address"
                }
            ],
            "stateMutability": "view",
            "type": "function"
        },
        {
            "inputs": [
                {
                    "internalType": "address",
                    "name": "to",
                    "type": "address"
                }
            ],
            "name": "delegate",
            "outputs": [],
            "stateMutability": "nonpayable",
            "type": "function"
        },
        {
            "inputs": [],
            "name": "getAllProposals",
            "outputs": [
                {
                    "components": [
                        {
                            "internalType": "bytes32",
                            "name": "name",
                            "type": "bytes32"
                        },
                        {
                            "internalType": "uint256",
                            "name": "voteCount",
                            "type": "uint256"
                        }
                    ],
                    "internalType": "struct Ballot.Proposal[]",
                    "name": "",
                    "type": "tuple[]"
                }
            ],
            "stateMutability": "view",
            "type": "function"
        },
        {
            "inputs": [
                {
                    "internalType": "address",
                    "name": "voter",
                    "type": "address"
                }
            ],
            "name": "giveRightToVote",
            "outputs": [],
            "stateMutability": "nonpayable",
            "type": "function"
        },
        {
            "inputs": [
                {
                    "internalType": "uint256",
                    "name": "",
                    "type": "uint256"
                }
            ],
            "name": "proposals",
            "outputs": [
                {
                    "internalType": "bytes32",
                    "name": "name",
                    "type": "bytes32"
                },
                {
                    "internalType": "uint256",
                    "name": "voteCount",
                    "type": "uint256"
                }
            ],
            "stateMutability": "view",
            "type": "function"
        },
        {
            "inputs": [
                {
                    "internalType": "uint256",
                    "name": "proposal",
                    "type": "uint256"
                }
            ],
            "name": "vote",
            "outputs": [],
            "stateMutability": "nonpayable",
            "type": "function"
        },
        {
            "inputs": [
                {
                    "internalType": "address",
                    "name": "",
                    "type": "address"
                }
            ],
            "name": "voters",
            "outputs": [
                {
                    "internalType": "uint256",
                    "name": "weight",
                    "type": "uint256"
                },
                {
                    "internalType": "bool",
                    "name": "voted",
                    "type": "bool"
                },
                {
                    "internalType": "address",
                    "name": "delegate",
                    "type": "address"
                },
                {
                    "internalType": "uint256",
                    "name": "vote",
                    "type": "uint256"
                }
            ],
            "stateMutability": "view",
            "type": "function"
        },
        {
            "inputs": [],
            "name": "winnerName",
            "outputs": [
                {
                    "internalType": "bytes32",
                    "name": "winnerName_",
                    "type": "bytes32"
                }
            ],
            "stateMutability": "view",
            "type": "function"
        },
        {
            "inputs": [],
            "name": "winningProposal",
            "outputs": [
                {
                    "internalType": "uint256",
                    "name": "winningProposal_",
                    "type": "uint256"
                }
            ],
            "stateMutability": "view",
            "type": "function"
        }
    ],
    "bytecode": "0x60806040526005600055600260015560016002553480156200002057600080fd5b50604051620017f7380380620017f783398181016040528101906200004691906200026e565b33600360006101000a81548173ffffffffffffffffffffffffffffffffffffffff021916908373ffffffffffffffffffffffffffffffffffffffff16021790555060005460046000600360009054906101000a900473ffffffffffffffffffffffffffffffffffffffff1673ffffffffffffffffffffffffffffffffffffffff1673ffffffffffffffffffffffffffffffffffffffff1681526020019081526020016000206000018190555060005b8151811015620001ad576005604051806040016040528084848151811062000146577f4e487b7100000000000000000000000000000000000000000000000000000000600052603260045260246000fd5b6020026020010151815260200160008152509080600181540180825580915050600190039060005260206000209060020201600090919091909150600082015181600001556020820151816001015550508080620001a49062000355565b915050620000f5565b50506200042c565b6000620001cc620001c684620002dc565b620002b3565b90508083825260208201905082856020860282011115620001ec57600080fd5b60005b8581101562000220578162000205888262000257565b845260208401935060208301925050600181019050620001ef565b5050509392505050565b600082601f8301126200023c57600080fd5b81516200024e848260208601620001b5565b91505092915050565b600081519050620002688162000412565b92915050565b6000602082840312156200028157600080fd5b600082015167ffffffffffffffff8111156200029c57600080fd5b620002aa848285016200022a565b91505092915050565b6000620002bf620002d2565b9050620002cd82826200031f565b919050565b6000604051905090565b600067ffffffffffffffff821115620002fa57620002f9620003d2565b5b602082029050602081019050919050565b6000819050919050565b6000819050919050565b6200032a8262000401565b810181811067ffffffffffffffff821117156200034c576200034b620003d2565b5b80604052505050565b6000620003628262000315565b91507fffffffffffffffffffffffffffffffffffffffffffffffffffffffffffffffff821415620003985762000397620003a3565b5b600182019050919050565b7f4e487b7100000000000000000000000000000000000000000000000000000000600052601160045260246000fd5b7f4e487b7100000000000000000000000000000000000000000000000000000000600052604160045260246000fd5b6000601f19601f8301169050919050565b6200041d816200030b565b81146200042957600080fd5b50565b6113bb806200043c6000396000f3fe608060405234801561001057600080fd5b50600436106100b45760003560e01c8063a3ec138d11610071578063a3ec138d1461017a578063b2a536b1146101ad578063c5495ba7146101cb578063c70a3306146101e9578063cceb68f514610207578063e2ba53f014610225576100b4565b80630121b93f146100b9578063013cf08b146100d55780632e4176cf146101065780635c19a95c14610124578063609ff1bd146101405780639e7b8d611461015e575b600080fd5b6100d360048036038101906100ce9190610cf0565b610243565b005b6100ef60048036038101906100ea9190610cf0565b6103b0565b6040516100fd929190610f65565b60405180910390f35b61010e6103e4565b60405161011b9190610f0d565b60405180910390f35b61013e60048036038101906101399190610cc7565b61040a565b005b6101486107cc565b604051610155919061106e565b60405180910390f35b61017860048036038101906101739190610cc7565b6108a0565b005b610194600480360381019061018f9190610cc7565b610a5c565b6040516101a49493929190611089565b60405180910390f35b6101b5610ab9565b6040516101c2919061106e565b60405180910390f35b6101d3610abf565b6040516101e0919061106e565b60405180910390f35b6101f1610ac5565b6040516101fe919061106e565b60405180910390f35b61020f610acb565b60405161021c9190610f28565b60405180910390f35b61022d610c26565b60405161023a9190610f4a565b60405180910390f35b6000600460003373ffffffffffffffffffffffffffffffffffffffff1673ffffffffffffffffffffffffffffffffffffffff16815260200190815260200160002090506000816000015414156102ce576040517f08c379a00000000000000000000000000000000000000000000000000000000081526004016102c590610fae565b60405180910390fd5b8060010160009054906101000a900460ff1615610320576040517f08c379a000000000000000000000000000000000000000000000000000000000815260040161031790610fce565b60405180910390fd5b60018160010160006101000a81548160ff021916908315150217905550818160020181905550806000015460058381548110610385577f4e487b7100000000000000000000000000000000000000000000000000000000600052603260045260246000fd5b906000526020600020906002020160010160008282546103a59190611118565b925050819055505050565b600581815481106103c057600080fd5b90600052602060002090600202016000915090508060000154908060010154905082565b600360009054906101000a900473ffffffffffffffffffffffffffffffffffffffff1681565b6000600460003373ffffffffffffffffffffffffffffffffffffffff1673ffffffffffffffffffffffffffffffffffffffff16815260200190815260200160002090508060010160009054906101000a900460ff161561049f576040517f08c379a000000000000000000000000000000000000000000000000000000000815260040161049690610fee565b60405180910390fd5b3373ffffffffffffffffffffffffffffffffffffffff168273ffffffffffffffffffffffffffffffffffffffff16141561050e576040517f08c379a00000000000000000000000000000000000000000000000000000000081526004016105059061104e565b60405180910390fd5b5b600073ffffffffffffffffffffffffffffffffffffffff16600460008473ffffffffffffffffffffffffffffffffffffffff1673ffffffffffffffffffffffffffffffffffffffff16815260200190815260200160002060010160019054906101000a900473ffffffffffffffffffffffffffffffffffffffff1673ffffffffffffffffffffffffffffffffffffffff161461067e57600460008373ffffffffffffffffffffffffffffffffffffffff1673ffffffffffffffffffffffffffffffffffffffff16815260200190815260200160002060010160019054906101000a900473ffffffffffffffffffffffffffffffffffffffff1691503373ffffffffffffffffffffffffffffffffffffffff168273ffffffffffffffffffffffffffffffffffffffff161415610679576040517f08c379a00000000000000000000000000000000000000000000000000000000081526004016106709061100e565b60405180910390fd5b61050f565b60018160010160006101000a81548160ff021916908315150217905550818160010160016101000a81548173ffffffffffffffffffffffffffffffffffffffff021916908373ffffffffffffffffffffffffffffffffffffffff1602179055506000600460008473ffffffffffffffffffffffffffffffffffffffff1673ffffffffffffffffffffffffffffffffffffffff16815260200190815260200160002090508060010160009054906101000a900460ff16156107a7578160000154600582600201548154811061077b577f4e487b7100000000000000000000000000000000000000000000000000000000600052603260045260246000fd5b9060005260206000209060020201600101600082825461079b9190611118565b925050819055506107c7565b81600001548160000160008282546107bf9190611118565b925050819055505b505050565b6000806000905060005b60058054905081101561089b57816005828154811061081e577f4e487b7100000000000000000000000000000000000000000000000000000000600052603260045260246000fd5b90600052602060002090600202016001015411156108885760058181548110610870577f4e487b7100000000000000000000000000000000000000000000000000000000600052603260045260246000fd5b90600052602060002090600202016001015491508092505b8080610893906111c0565b9150506107d6565b505090565b600360009054906101000a900473ffffffffffffffffffffffffffffffffffffffff1673ffffffffffffffffffffffffffffffffffffffff163373ffffffffffffffffffffffffffffffffffffffff1614610930576040517f08c379a000000000000000000000000000000000000000000000000000000000815260040161092790610f8e565b60405180910390fd5b80600460008273ffffffffffffffffffffffffffffffffffffffff1673ffffffffffffffffffffffffffffffffffffffff16815260200190815260200160002060010160009054906101000a900460ff16156109c1576040517f08c379a00000000000000000000000000000000000000000000000000000000081526004016109b89061102e565b60405180910390fd5b6000600460008473ffffffffffffffffffffffffffffffffffffffff1673ffffffffffffffffffffffffffffffffffffffff1681526020019081526020016000206000015414610a1057600080fd5b6001600460008473ffffffffffffffffffffffffffffffffffffffff1673ffffffffffffffffffffffffffffffffffffffff168152602001908152602001600020600001819055505050565b60046020528060005260406000206000915090508060000154908060010160009054906101000a900460ff16908060010160019054906101000a900473ffffffffffffffffffffffffffffffffffffffff16908060020154905084565b60015481565b60005481565b60025481565b6060600060058054905067ffffffffffffffff811115610b14577f4e487b7100000000000000000000000000000000000000000000000000000000600052604160045260246000fd5b604051908082528060200260200182016040528015610b4d57816020015b610b3a610c80565b815260200190600190039081610b325790505b50905060005b600580549050811015610c1e5760058181548110610b9a577f4e487b7100000000000000000000000000000000000000000000000000000000600052603260045260246000fd5b906000526020600020906002020160405180604001604052908160008201548152602001600182015481525050828281518110610c00577f4e487b7100000000000000000000000000000000000000000000000000000000600052603260045260246000fd5b60200260200101819052508080610c16906111c0565b915050610b53565b508091505090565b60006005610c326107cc565b81548110610c69577f4e487b7100000000000000000000000000000000000000000000000000000000600052603260045260246000fd5b906000526020600020906002020160000154905090565b604051806040016040528060008019168152602001600081525090565b600081359050610cac81611357565b92915050565b600081359050610cc18161136e565b92915050565b600060208284031215610cd957600080fd5b6000610ce784828501610c9d565b91505092915050565b600060208284031215610d0257600080fd5b6000610d1084828501610cb2565b91505092915050565b6000610d258383610ec0565b60408301905092915050565b610d3a8161116e565b82525050565b6000610d4b826110de565b610d5581856110f6565b9350610d60836110ce565b8060005b83811015610d91578151610d788882610d19565b9750610d83836110e9565b925050600181019050610d64565b5085935050505092915050565b610da781611180565b82525050565b610db68161118c565b82525050565b610dc58161118c565b82525050565b6000610dd8601b83611107565b9150610de382611238565b602082019050919050565b6000610dfb601483611107565b9150610e0682611261565b602082019050919050565b6000610e1e600e83611107565b9150610e298261128a565b602082019050919050565b6000610e41601283611107565b9150610e4c826112b3565b602082019050919050565b6000610e64601983611107565b9150610e6f826112dc565b602082019050919050565b6000610e87601883611107565b9150610e9282611305565b602082019050919050565b6000610eaa601e83611107565b9150610eb58261132e565b602082019050919050565b604082016000820151610ed66000850182610dad565b506020820151610ee96020850182610eef565b50505050565b610ef8816111b6565b82525050565b610f07816111b6565b82525050565b6000602082019050610f226000830184610d31565b92915050565b60006020820190508181036000830152610f428184610d40565b905092915050565b6000602082019050610f5f6000830184610dbc565b92915050565b6000604082019050610f7a6000830185610dbc565b610f876020830184610efe565b9392505050565b60006020820190508181036000830152610fa781610dcb565b9050919050565b60006020820190508181036000830152610fc781610dee565b9050919050565b60006020820190508181036000830152610fe781610e11565b9050919050565b6000602082019050818103600083015261100781610e34565b9050919050565b6000602082019050818103600083015261102781610e57565b9050919050565b6000602082019050818103600083015261104781610e7a565b9050919050565b6000602082019050818103600083015261106781610e9d565b9050919050565b60006020820190506110836000830184610efe565b92915050565b600060808201905061109e6000830187610efe565b6110ab6020830186610d9e565b6110b86040830185610d31565b6110c56060830184610efe565b95945050505050565b6000819050602082019050919050565b600081519050919050565b6000602082019050919050565b600082825260208201905092915050565b600082825260208201905092915050565b6000611123826111b6565b915061112e836111b6565b9250827fffffffffffffffffffffffffffffffffffffffffffffffffffffffffffffffff0382111561116357611162611209565b5b828201905092915050565b600061117982611196565b9050919050565b60008115159050919050565b6000819050919050565b600073ffffffffffffffffffffffffffffffffffffffff82169050919050565b6000819050919050565b60006111cb826111b6565b91507fffffffffffffffffffffffffffffffffffffffffffffffffffffffffffffffff8214156111fe576111fd611209565b5b600182019050919050565b7f4e487b7100000000000000000000000000000000000000000000000000000000600052601160045260246000fd5b7f4f6e6c79206368616972706572736f6e2063616e206163636573730000000000600082015250565b7f486173206e6f20726967687420746f20766f7465000000000000000000000000600082015250565b7f416c726561647920766f7465642e000000000000000000000000000000000000600082015250565b7f596f7520616c726561647920766f7465642e0000000000000000000000000000600082015250565b7f466f756e64206c6f6f7020696e2064656c65676174696f6e2e00000000000000600082015250565b7f54686520766f74657220616c726561647920766f7465642e0000000000000000600082015250565b7f53656c662d64656c65676174696f6e20697320646973616c6c6f7765642e0000600082015250565b6113608161116e565b811461136b57600080fd5b50565b611377816111b6565b811461138257600080fd5b5056fea2646970667358221220dce24331ad10c20ace4713de723e56f01b4e8364f4da40fd89eede3092cb356164736f6c63430008040033",
    "linkReferences": {},
    "deployedLinkReferences": {}
}